:1000000000600020A50300005D0300005F03000006
:1000100061030000630300006503000000000000AE
:100020000000000000000000000000006703000066
:1000300069030000000000006B0300006D03000076
:100040006F0300006F0300006F0300006F030000E8
:100050006F030000000000006F0300006F0300004A
:100060005D0500006F0300006F0300006F030000D8
:100070006F0300006F0300006F0300006F030000B8
:100080006F0300006F0300006F0300006F030000A8
:100090006F0300006F0300006F0300006F03000098
:1000A0006F0300006F03000000000000000000006C
:1000B0006F0300006F03000000000000000000005C
:1000C0000000000000000000000000000000000030
:1000D0000000000000000000000000000000000020
:1000E0000000000000000000000000000000000010
:1000F0000000000000000000000000000000000000
:1001000000000000000000000000000000000000EF
:1001100000000000000000000000000000000000DF
:1001200000000000000000000000000000000000CF
:1001300000000000000000000000000000000000BF
:1001400000000000000000000000000000000000AF
:10015000000000000000000000000000000000009F
:10016000000000000000000000000000000000008F
:10017000000000000000000000000000000000007F
:10018000000000000000000000000000000000006F
:10019000000000000000000000000000000000005F
:1001A000000000000000000000000000000000004F
:1001B000000000000000000000000000000000003F
:1001C000000000000000000000000000000000002F
:1001D000000000000000000000000000000000001F
:1001E000000000000000000000000000000000000F
:1001F00000000000000000000000000000000000FF
:10020000354936480A1A02D0072291438D463449AF
:1002100034480A1A06D00722914381F30988022242
:1002200082F3148830483149314A00F044F83148AB
:100230003149324A00F03FF831483249324A00F041
:100240003AF832483249334A00F035F832483349F7
:10025000334A00F030F833483349344A00F02BF881
:1002600033483449344A00F026F8344834490022EF
:1002700000F02CF833483449002200F027F83348C6
:100280003349091A082902DB002202604160314A21
:1002900090471F481F49884205D00268043003B4C4
:1002A000904703BCF7E700208646EC46002000217B
:1002B000294A9047FEE7884207D0521A05D00378B2
:1002C00001300B700131013AF9D17047884202D0F8
:1002D00002700130FAE770470060002000580020EB
:1002E0000060002000600020BC0900000000002029
:1002F00004000020EC030000EC030000A009000053
:10030000BC0900000000002000000020A00900003F
:10031000A0090000A0090000A0090000A009000039
:10032000A0090000A0090000A0090000BC0900000D
:10033000C009000004000020040000200400002088
:1003400018000020180000201800002018000020CD
:1003500018080020BB03000041060000FEE7FEE78E
:10036000FEE7FEE7FEE7FEE7FEE7FEE7FEE7FEE765
:1003700009480068094909680A280AD1002908D1F2
:10038000074802686FF070031A404FF040031A43A9
:10039000026000F009B800003001001034010010C4
:1003A000E40E0040FFF7E4BF0B484FF0070188431D
:1003B00085460A488047FFF723BF094809490A4A8A
:1003C000884207D0521A05D0037801300B700131F2
:1003D000013AF9D17047000000600020E9060000F2
:0C03E000A0090000000000200000002028
:1003EC001FB50021039001AA44F20100CDE90111CF
:1003FC0000F004F805B05DF804FB000072B6094B80
:10040C001B68DB0700D500BEBFF34F8F0649074BB7
:10041C00CA6802F4E0621343CB60BFF34F8F00BF96
:10042C00FDE700BFF0ED00E000ED00E00400FA0590
:10043C00F7B505792F4C0C236B43E71816463A7A1F
:10044C00002A54D1E6504B687B6047790368944688
:10045C00D6B2B7423CD8CA7843F307365201002EC5
:10046C00C3F30733D2B23DDB234F07EB060C8CF8FA
:10047C0000230122760903F01F0302FA03F347F865
:10048C00263003684A78D3F8040502F0030220F002
:10049C0003000243C3F80425D3F808058A7820F03A
:1004AC00030002F003020243C3F80825D3F8100539
:1004BC000A7820F00F0102F00F020A43C3F810254E
:1004CC000C2303FB054401232372002003B0F0BD71
:1004DC00960006F5A076013243F806C09E590196A7
:1004EC00019EB5E7054E03F00F03F254C9E708204F
:1004FC00ECE700BF0400002000E100E014ED00E098
:10050C00036801221A600379034A0C2101FB0323BF
:10051C0002221A72704700BF0400002037B54FF456
:10052C00803400688C407BB18B0003F5A0730025F0
:10053C00C550C3580193019BC0F8044301F5A87141
:10054C0040F8212003B030BDC0F80843F6E70000A6
:10055C002DE9F341104C114F114E00254FF480380A
:10056C00236883B1D7F8043308FA05F21A420AD08B
:10057C000023236023680193A4F50040019B80B203
:10058C00D6E9003198470135042D04F10404E7D174
:10059C0002B0BDE8F08100BF408100400080004007
:1005AC0004000020074BB0F5A07F02BF1A6801328F
:1005BC001A601A68914204D100221A60024B01227F
:1005CC001A707047140000201000002013B50A4662
:1005DC001549044603C96B4683E80300134801948C
:1005EC001946FFF725FF08B1FFF7FAFE104BD3F8B9
:1005FC0010254FF47A50D2B2A4FB0001C2F12003B3
:10060C0001FA03F3A2F1200420FA02F221FA04F415
:10061C001A432243012300210448FFF77FFF0348BC
:10062C00FFF76EFF02B010BDA0090000A809000082
:10063C000080004008B502490248FFF7C7FFFEE7FB
:10064C00B105000048C40700BFF34F8F0549064BA6
:10065C00CA6802F4E0621343CB60BFF34F8F00BF54
:10066C00FDE700BF00ED00E00400FA05044B18683C
:10067C00421C04BF034B1878831F584258417047E3
:10068C0030010010E00F00F0074B1B78062B09D14E
:10069C00064B1B68C3F30313033B032B02D8044A1A
:1006AC00D05C704700207047E00F00F0E80F00F0BE
:1006BC00B8090000074B1868421C04BF064B187899
:1006CC00062804D0A0F10A03584258417047012073
:1006DC00704700BF30010010E00F00F008B5FFF7C5
:1006EC00C5FF28B1944B954A1B68C3F304231360D0
:1006FC00FFF7CAFF10B1924B924A1A60FFF7DAFF6C
:10070C0028B1914B914A1B68C3F342331360FFF736
:10071C00BBFF20B18E4AD36823F08073D360FFF700
:10072C00C9FF40B14FF080430022C3F80C21C3F83D
:10073C001021C3F83825FFF7A7FF10B1854B032212
:10074C001A60FFF7A1FF40B1834B05221A6001220A
:10075C009A6700229A603F225A60804B1A68501C9C
:10076C000BBF7F4B7F4B1A781B6802BF08331B688B
:10077C00C3F30313062A4ED1033B032B03D87A4A47
:10078C00D35C002B49D04FF08052784BD2F8041434
:10079C00C3F82015D2F80814C3F82415D2F80C1499
:1007AC00C3F82815D2F81014C3F82C15D2F8141469
:1007BC00C3F83015D2F81814C3F83415D2F81C1439
:1007CC00C3F84015D2F82014C3F84415D2F82414F9
:1007DC00C3F84815D2F82814C3F84C15D2F82C14C9
:1007EC00C3F85015D2F83014C3F85415D2F8341499
:1007FC00C3F86015D2F83814C3F86415D2F83C1459
:10080C00C3F86815D2F84014C3F86C15D2F8442418
:10081C00C3F8702501E00A2AB5D0FFF727FF28B1ED
:10082C00534B544A1B6803F04F031360FFF742FF0E
:10083C0048B14FF08043D3F80024D10744BF6FF088
:10084C000102C3F80024454B1B68062B0CD1454B09
:10085C001B68033B032B02D8474AD35C83B1474A3E
:10086C00136843F4806313603C4B1B680A2B07D15D
:10087C003C4B1B6823B13F4A136843F00F031360D2
:10088C004FF01023D3F80022002A03DBD3F80432F4
:10089C00002B24DA3A4B0122C3F80425D3F80024A8
:1008AC00002AFBD04FF010221521C2F80012D3F809
:1008BC000024002AFBD04FF010231522C3F8042289
:1008CC002F4B1A46D3F800140029FBD00021C3F893
:1008DC000415D2F80034002BFBD0FFF7B5FE294BE2
:1008EC001B68DA0703D4284B1B68DB071FD5244B86
:1008FC000122C3F80425D3F80024002AFBD0214A96
:10090C0000211160D3F80024002AFBD01E4B0022DA
:10091C001A601B4B1A46D3F800140029FBD0002197
:10092C00C3F80415D2F80034002BFBD0D5E7174BD5
:10093C00174A1A6008BD00BF24030010403501405F
:10094C0074C007400DF0ADBA440200103C050040E5
:10095C00F0ED00E0A0050040105600403001001002
:10096C00E00F00F034010010B009000000C000409E
:10097C0058020010E40E0040B40900003C1700407F
:10098C0000E00140001200100412001000000020D2
:04099C000090D003F4
:1009A0000400000600000000008000400004000079
:0C09B00000000101000000010100000037
:0409BC000090D003D4
:04000003000003A551
:00000001FF
