:1000000000600020A50300005D0300005F03000006
:1000100061030000630300006503000000000000AE
:100020000000000000000000000000006703000066
:1000300069030000000000006B0300006D03000076
:100040006F0300006F0300006F0300006F030000E8
:100050006F030000000000006F0300006F0300004A
:10006000850A00006F0300006F0300006F030000AB
:100070006F0300006F0300006F0300006F030000B8
:100080006F0300006F0300006F0300006F030000A8
:100090006F0300006F0300006F0300006F03000098
:1000A0006F0300006F03000000000000000000006C
:1000B0006F0300006F03000000000000000000005C
:1000C0000000000000000000000000000000000030
:1000D0000000000000000000000000000000000020
:1000E0000000000000000000000000000000000010
:1000F0000000000000000000000000000000000000
:1001000000000000000000000000000000000000EF
:1001100000000000000000000000000000000000DF
:1001200000000000000000000000000000000000CF
:1001300000000000000000000000000000000000BF
:1001400000000000000000000000000000000000AF
:10015000000000000000000000000000000000009F
:10016000000000000000000000000000000000008F
:10017000000000000000000000000000000000007F
:10018000000000000000000000000000000000006F
:10019000000000000000000000000000000000005F
:1001A000000000000000000000000000000000004F
:1001B000000000000000000000000000000000003F
:1001C000000000000000000000000000000000002F
:1001D000000000000000000000000000000000001F
:1001E000000000000000000000000000000000000F
:1001F00000000000000000000000000000000000FF
:10020000354936480A1A02D0072291438D463449AF
:1002100034480A1A06D00722914381F30988022242
:1002200082F3148830483149314A00F044F83148AB
:100230003149324A00F03FF831483249324A00F041
:100240003AF832483249334A00F035F832483349F7
:10025000334A00F030F833483349344A00F02BF881
:1002600033483449344A00F026F8344834490022EF
:1002700000F02CF833483449002200F027F83348C6
:100280003349091A082902DB002202604160314A21
:1002900090471F481F49884205D00268043003B4C4
:1002A000904703BCF7E700208646EC46002000217B
:1002B000294A9047FEE7884207D0521A05D00378B2
:1002C00001300B700131013AF9D17047884202D0F8
:1002D00002700130FAE770470060002000580020EB
:1002E0000060002000600020F416000000000020E4
:1002F00004000020EC030000EC030000981500004F
:10030000F4160000000000200000002098150000F6
:100310009815000098150000981500009815000029
:10032000981500009815000098150000F4160000BC
:10033000F816000004000020040000200400002043
:10034000380000203800002038000020380000204D
:1003500038080020BB030000390C0000FEE7FEE770
:10036000FEE7FEE7FEE7FEE7FEE7FEE7FEE7FEE765
:1003700009480068094909680A280AD1002908D1F2
:10038000074802686FF070031A404FF040031A43A9
:10039000026000F009B800003001001034010010C4
:1003A000E40E0040FFF7E4BF0B484FF0070188431D
:1003B00085460A488047FFF723BF094809490A4A8A
:1003C000884207D0521A05D0037801300B700131F2
:1003D000013AF9D17047000000600020451200008A
:0C03E00098150000000000200000002024
:1003EC0086B003900291019201238DF817309DF88D
:1003FC001730204A039B13601E4A029B53601D4A10
:10040C00019B9360039B44F20102934212D0039B25
:10041C0044F20202934220D1019B164AD360154B41
:10042C00DB681B68134A9361124BDB685B68114AEB
:10043C00D36112E0019B0F4A13610E4B1B699B6841
:10044C000C4A53610B4B1B691B680A4A9361094B9D
:10045C001B695B68074AD36100BF72B600BF00BF5F
:10046C009DF81730DBB2002BFAD162B600BF00BF8B
:10047C0006B070470400002000B583B002900091D4
:10048C00019244F2010071466A4600F003F803B091
:10049C0000BD00BF00B587B003900291019272B607
:1004AC0000BF039B44F20102934207D0039B44F22A
:1004BC000202934205D1019B059303E0019B049337
:1004CC0000E000BF074B1B6803F00103002B00D0BA
:1004DC0000BE019A02990398FFF782FF00BF07B094
:1004EC005DF804FBF0ED00E000B585B0034600912B
:1004FC00ADF80630BDF806300293009B039302ABB7
:10050C001A46002144F20200FFF7C4FF00BF05B0F9
:10051C005DF804FB82B003468DF807309DF9073077
:10052C00002B0CDB9DF8073003F01F0205499DF9E9
:10053C0007305B09012000FA02F241F8232000BFCA
:10054C0002B0704700E100E082B0034600918DF8E4
:10055C0007309DF90730002B0ADB009BDAB20C49FF
:10056C009DF907305201D2B20B4483F800230BE003
:10057C00009BDAB207499DF8073003F00F03043BE8
:10058C005201D2B20B441A7600BF02B0704700BFC2
:10059C0000E100E000ED00E082B00190019B1B0B3C
:1005AC005BB2184602B0704700B583B003460A46EA
:1005BC008DF8073013468DF806309DF80630072B62
:1005CC0003D908496B20FFF78FFF9DF806209DF992
:1005DC00073011461846FFF7B7FF00BF03B05DF8B0
:1005EC0004FB00BF9815000000B583B003468DF8DE
:1005FC0007309DF907301846FFF78CFF00BF03B09A
:10060C005DF804FB82B001900B468DF803309DF829
:10061C000330019A134401221A6000BF02B07047E4
:10062C0084B001900B46ADF80230BDF80230019A4F
:10063C00134400221A60BDF80230019A13441B685F
:10064C000393039B00BF04B0704782B001900B462C
:10065C00ADF80230BDF80230019A13441B68002B30
:10066C0014BF01230023DBB2184602B0704782B0DE
:10067C0001900091019B009AC3F8042300BF02B0C3
:10068C00704782B001900091019B009AC3F8082337
:10069C0000BF02B0704782B001900091019BD3F86B
:1006AC000423009B1340002B14BF01230023DBB257
:1006BC00184602B0704782B001900B468DF803309B
:1006CC00019BD3F8043523F003029DF8033003F0AB
:1006DC0003031A43019BC3F8042500BF02B0704703
:1006EC0082B001900B468DF80330019BD3F808358E
:1006FC0023F003029DF8033003F003031A43019B1C
:10070C00C3F8082500BF02B0704782B001900B46B9
:10071C008DF80330019BD3F8103523F00F029DF8B0
:10072C00033003F00F031A43019BC3F8102500BFDD
:10073C0002B0704784B003900B4601928DF80B30D9
:10074C009DF80B20039B02F5A872019943F8221027
:10075C0000BF04B0704782B00190019B9B0003F571
:10076C00A0739BB2184602B0704782B001904FF450
:10077C008032019B02FA03F3184602B07047000066
:10078C0010B588B0039002910192039B1B791A4615
:10079C0013465B0013449B005B4A13440693029B75
:1007AC00002B03D159494A20FFF79EFE019B002BD9
:1007BC0003D156494B20FFF797FE069B1B7A002B63
:1007CC0003D008230593059B9AE0039B1B68504AB2
:1007DC0093420FD1029B9B78012B3AD0029B9B78C2
:1007EC00002B36D0029B9B78022B32D0029B9B783D
:1007FC00032B2ED0039B1B68464A93420FD1029BBE
:10080C009B78012B25D0029B9B78002B21D0029B3F
:10081C009B78022B1DD0029B9B78032B19D0039B3A
:10082C001B683D4A93420FD1029B9B78012B10D041
:10083C00029B9B78002B0CD0029B9B78022B08D040
:10084C00029B9B78032B04D030495F20FFF74CFEB2
:10085C0000E000BF069B019A1A60029B5A68069B37
:10086C005A6000238DF81F3010E0039B1C689DF824
:10087C001F301846FFF76FFF034619462046FFF757
:10088C00CFFE9DF81F3001338DF81F30039B5B7931
:10089C009DF81F209A42E8D3039B1B681846FFF76C
:1008AC007BFE03461A46029BDB7819461046FFF77F
:1008BC007BFE039B1B681846FFF76EFE034618462B
:1008CC00FFF792FE039B1A68029B5B781946104651
:1008DC00FFF7F1FE039B1A68029B9B7819461046A2
:1008EC00FFF7FEFE039B1A68029B1B781946104605
:1008FC00FFF70BFF069B01221A7200230593059B41
:10090C00184608B010BD00BF24000020C815000018
:10091C00008000400090004000A0004000B583B073
:10092C000190019B1B791946114A0B465B000B4445
:10093C009B00134408331B78012B03D00D498F20E7
:10094C00FFF7D2FD019B1B6800211846FFF75AFEEA
:10095C00019B1B791946064A0B465B000B449B0016
:10096C001344083302221A7000BF03B05DF804FB75
:10097C0024000020C815000010B586B00390019229
:10098C001A460B468DF80B3013468DF80A309DF83D
:10099C000B301846FFF7E9FE05909DF80A30002B46
:1009AC0012D0039B1C689DF80B301846FFF7D3FE42
:1009BC00034619462046FFF733FE039B1B68059937
:1009CC001846FFF754FE05E0039B1B680599184673
:1009DC00FFF757FE039B1B689DF80B10019A1846F6
:1009EC00FFF7A8FE00BF06B010BD00B587B003909E
:1009FC00029113468DF8073000238DF8173030E044
:100A0C009DF817301846FFF7A6FE0346ADF81430D4
:100A1C009DF817301846FFF7A8FE0490BDF8143067
:100A2C0019460398FFF711FE0346002B14D00499C6
:100A3C000398FFF730FE0346002B0DD0BDF81430A1
:100A4C0019460398FFF7ECFD029B1B68029A51684C
:100A5C00BDF81420104698479DF8173001338DF8D7
:100A6C0017309DF817209DF807309A42C8D300BF65
:100A7C0000BF07B05DF804FB08B504220249034827
:100A8C00FFF7B3FF00BF08BD24000020008000402A
:100A9C0082B00190019BD3F81035DBB2184602B03E
:100AAC0070470000F0B587B001900B468DF803300D
:100ABC009DF803300593019B18464FF00001024648
:100ACC000B464FF000064FF000075F0147EAD26774
:100ADC00560132463B46121A63EB01034FF00006F7
:100AEC004FF000079F0047EA9277960032463B464C
:100AFC00121841EB03034FF000004FF00001D90135
:100B0C0041EA5261D00102460B460599C1F120061B
:100B1C00A1F1200022FA01F403FA06F6344323FA79
:100B2C0000F0044323FA01F5CDE90245DDE9022387
:100B3C00012B08BF002A04D304494FF43170FFF78E
:100B4C00D3FC029B184607B0F0BD00BF4016000056
:100B5C0000B583B001900091019B1B681846FFF70C
:100B6C0097FF034619460098FFF79CFF034618466B
:100B7C0003B05DF804FB000082B003460091ADF8B1
:100B8C000630BDF80630B3F5A07F04D1094B1B68C5
:100B9C000133084A1360074B1A68009B9A4205D12F
:100BAC00044B00221A60044B01221A7000BF02B0E1
:100BBC00704700BF340000203000002000B589B021
:100BCC000190009100230793154A03AB92E80300B0
:100BDC0083E80300019B0493009A03AB1946114868
:100BEC00FFF7CEFD0790079B0693069B002B04D0C6
:100BFC000D4A76210698FFF73FFC01990948FFF74B
:100C0C00A7FF05900123059A00210648FFF7B4FEC3
:100C1C000448FFF783FE00BF09B05DF804FB00BF7A
:100C2C00E4160000EC1600007016000000B583B04E
:100C3C000123019306490748FFF7C0FF00BF064B8D
:100C4C001B78002BFBD0044B00221A70F6E700BF78
:100C5C00850B000048C4070030000020BFF34F8F05
:100C6C0000BF064BDB6803F4E0620449044B1343FA
:100C7C00CB60BFF34F8F00BF00BFFDE700ED00E07E
:100C8C000400FA0582B01B4B1B68B3F1FF3F0AD17D
:100C9C00194B1B68DBB20193184B1B681B0903F043
:100CAC000F03009305E0134B1B680193144B1B6857
:100CBC000093019B062B19D1009B033B032B13D8EC
:100CCC0001A252F823F000BFE50C0000E90C000073
:100CDC00ED0C0000F10C0000012308E0012306E0FC
:100CEC00012304E0012302E0012300E00023184665
:100CFC0002B0704730010010E00F00F0E80F00F078
:100D0C003401001082B0154B1B68DBB20193144BFD
:100D1C001B681B0903F00F030093019B062B19D1D1
:100D2C00009B033B032B13D801A252F823F000BF06
:100D3C004D0D0000510D0000550D0000590D000027
:100D4C00012308E0002306E0002304E0002302E076
:100D5C00002300E00023184602B07047E00F00F0BB
:100D6C00E80F00F082B0234B1B68B3F1FF3F0AD1B0
:100D7C00214B1B68DBB20193204B1B681B0903F052
:100D8C000F03009305E01B4B1B6801931C4B1B6866
:100D9C000093019B062B19D1009B033B032B13D80B
:100DAC0001A252F823F000BFC50D0000C90D0000D0
:100DBC00CD0D0000D10D0000012318E0012316E039
:100DCC00012314E0012312E0012310E0019B0A2B04
:100DDC000CD1009B002B03D0009B012B02D003E015
:100DEC00012304E0012302E0012300E00023184664
:100DFC0002B0704730010010E00F00F0E80F00F077
:100E0C003401001082B0154B1B68DBB20193144BFC
:100E1C001B681B0903F00F030093019B062B19D1D0
:100E2C00009B033B032B13D801A252F823F000BF05
:100E3C004D0E0000510E0000550E0000590E000022
:100E4C00012308E0002306E0002304E0002302E075
:100E5C00002300E00023184602B07047E00F00F0BA
:100E6C00E80F00F082B0234B1B68B3F1FF3F0AD1AF
:100E7C00214B1B68DBB20193204B1B681B0903F051
:100E8C000F03009305E01B4B1B6801931C4B1B6865
:100E9C000093019B062B19D1009B033B032B13D80A
:100EAC0001A252F823F000BFC50E0000C90E0000CD
:100EBC00CD0E0000D10E0000012318E0012316E036
:100ECC00012314E0012312E0012310E0019B0A2B03
:100EDC000CD1009B002B03D0009B012B02D003E014
:100EEC00012304E0012302E0012300E00023184663
:100EFC0002B0704730010010E00F00F0E80F00F076
:100F0C003401001082B0154B1B68DBB20193144BFB
:100F1C001B681B0903F00F030093019B062B19D1CF
:100F2C00009B033B032B13D801A252F823F000BF04
:100F3C004D0F0000510F0000550F0000590F00001D
:100F4C00012308E0002306E0002304E0002302E074
:100F5C00002300E00023184602B07047E00F00F0B9
:100F6C00E80F00F082B0154B1B68DBB20193144BF9
:100F7C001B681B0903F00F030093019B062B19D16F
:100F8C00009B033B032B13D801A252F823F000BFA4
:100F9C00AD0F0000B10F0000B50F0000B90F00003D
:100FAC00012308E0002306E0002304E0002302E014
:100FBC00002300E00023184602B07047E00F00F059
:100FCC00E80F00F082B0234B1B68B3F1FF3F0AD14E
:100FDC00214B1B68DBB20193204B1B681B0903F0F0
:100FEC000F03009305E01B4B1B6801931C4B1B6804
:100FFC000093019B062B19D1009B033B032B13D8A9
:10100C0001A252F823F000BF2510000029100000A7
:10101C002D10000031100000002318E0002316E012
:10102C00012314E0012312E0012310E0019B0A2BA1
:10103C000CD1009B002B03D0009B012B02D003E0B2
:10104C00012304E0012302E0012300E00023184601
:10105C0002B0704730010010E00F00F0E80F00F014
:10106C0034010010002318467047000082B01B4B5F
:10107C001B68B3F1FF3F0AD1194B1B68DBB201931C
:10108C00184B1B681B0903F00F03009305E0134B6F
:10109C001B680193144B1B680093019B062B19D101
:1010AC00009B033B032B13D801A252F823F000BF83
:1010BC00CD100000D1100000D5100000D910000098
:1010CC00012308E0012306E0012304E0012302E0F0
:1010DC00012300E00023184602B0704730010010D5
:1010EC00E00F00F0E80F00F03401001082B0234B49
:1010FC001B68B3F1FF3F0AD1214B1B68DBB2019394
:10110C00204B1B681B0903F00F03009305E01B4BDE
:10111C001B6801931C4B1B680093019B062B19D178
:10112C00009B033B032B13D801A252F823F000BF02
:10113C004D11000051110000551100005911000013
:10114C00012318E0012316E0012314E0012312E02F
:10115C00012310E0019B0A2B0CD1009B002B03D028
:10116C00009B012B02D003E0012304E0012302E0E9
:10117C00012300E00023184602B070473001001034
:10118C00E00F00F0E80F00F03401001082B0134BB8
:10119C001B680193124B1B680093019B062B19D102
:1011AC00009B033B032B13D801A252F823F000BF82
:1011BC00CD110000D1110000D5110000D911000093
:1011CC00002308E0002306E0002304E0012302E0F2
:1011DC00012300E00023184602B0704730010010D4
:1011EC003401001082B00D4B1B6801930C4B1B6833
:1011FC000093019B0A2B0CD1009B002B03D0009B6E
:10120C00012B02D003E0002304E0012302E00123C0
:10121C0000E00023184602B0704700BF30010010F8
:10122C0034010010024B034A1A6000BF704700BF24
:10123C00000000200090D00308B5FFF723FD034603
:10124C00002B06D0BD4B1B681B0ABD4A03F01F03C5
:10125C001360FFF757FD0346002B02D0B94BBA4A77
:10126C001A60FFF77FFD0346002B06D0B74B1B68B7
:10127C005B0BB74A03F007031360FFF7C3FD03468C
:10128C00002B05D0B34BDB68B24A23F08073D360DC
:10129C00FFF7E8FD0346002B0ED04FF080430022F1
:1012AC00C3F80C214FF080430022C3F810214FF0FB
:1012BC0080430022C3F83825FFF724FE0346002B99
:1012CC0002D0A54B03221A60FFF74CFE0346002BFD
:1012DC000BD0A24B05221A60A14B01221A60A14B24
:1012EC0000221A60A04B3F221A60FFF76BFE0346E8
:1012FC00002B76D04FF080539C4AD3F80434C2F8BC
:10130C0020354FF08053994AD3F80834C2F824356D
:10131C004FF08053954AD3F80C34C2F828354FF06F
:10132C008053924AD3F81034C2F82C354FF08053C6
:10133C008E4AD3F81434C2F830354FF080538B4AB0
:10134C00D3F81834C2F834354FF08053874AD3F8A9
:10135C001C34C2F840354FF08053844AD3F8203403
:10136C00C2F844354FF08053804AD3F82434C2F885
:10137C0048354FF080537D4AD3F82834C2F84C35A9
:10138C004FF08053794AD3F82C34C2F850354FF0D3
:10139C008053764AD3F83034C2F854354FF080532A
:1013AC00724AD3F83434C2F860354FF080536F4A28
:1013BC00D3F83834C2F864354FF080536B4AD3F805
:1013CC003C34C2F868354FF08053684AD3F8403447
:1013DC00C2F86C354FF08053644AD3F84434C2F8E9
:1013EC007035FFF73FFE0346002B03D0604BFB220A
:1013FC00C3F81825FFF73AFE0346002B05D05D4BCA
:10140C001B685D4A03F04F031360FFF76FFE034642
:10141C00002B0DD04FF08043D3F8003403F00103C0
:10142C00002B05D04FF080436FF00102C3F800246D
:10143C00FFF7ACFE0346002B05D0504B1B684F4A00
:10144C0043F480631360FFF7CDFE0346002B05D0F9
:10145C00494B1B68484A43F00F0313604FF01023AD
:10146C00D3F80032002B05DB4FF01023D3F80432F5
:10147C00002B2BDA424B0122C3F8042500BF404B52
:10148C00D3F80034002BFAD04FF010231522C3F8F8
:10149C00002200BF3A4BD3F80034002BFAD04FF0A7
:1014AC0010231522C3F8042200BF354BD3F80034A7
:1014BC00002BFAD0324B0022C3F8042500BF304B6E
:1014CC00D3F80034002BFAD0FFF7C8FB2D4B1B6868
:1014DC0003F00103002B05D12B4B1B6803F0010318
:1014EC00002B27D0264B0122C3F8042500BF244B28
:1014FC00D3F80034002BFAD0224B00221A6000BF24
:10150C001F4BD3F80034002BFAD01F4B00221A606B
:10151C0000BF1B4BD3F80034002BFAD0184B002221
:10152C00C3F8042500BF164BD3F80034002BFAD0B7
:10153C00FFF794FBFFF776FE00BF08BD24030010F5
:10154C004035014074C007400DF0ADBA44020010A4
:10155C003C050040F0ED00E0A005004010560040B6
:10156C0088560040185600401456004000C00040F9
:10157C0000F0004058020010E40E00403C17004000
:0C158C0000E001400012001004120010EA
:101598002E2E2F2E2E2F2E2E2F2E2E2F2E2E2F2E5E
:1015A8002E2F696E746567726174696F6E2F6E7223
:1015B80066782F6E7266785F676C75652E680000B6
:1015C8002F686F6D652F737761706E612F446F7729
:1015D8006E6C6F6164732F446576696365446F77D9
:1015E8006E6C6F61642F6E52463553444B31373001
:1015F80032643637346464652F6E5246355F53441F
:101608004B5F31372E302E325F6436373464646571
:101618002F6D6F64756C65732F6E7266782F6472A8
:1016280069766572732F7372632F6E7266785F7452
:10163800696D65722E6300002E2E2F2E2E2F2E2EF2
:101648002F2E2E2F2E2E2F2E2E2F6D6F64756C653C
:10165800732F6E7266782F68616C2F6E72665F7476
:10166800696D65722E6800002F686F6D652F73773E
:1016780061706E612F446F776E6C6F6164732F4475
:101688006576696365446F776E6C6F61642F6E521F
:10169800463553444B3137303264363734646465E9
:1016A8002F6E5246355F53444B5F31372E302E3202
:1016B8005F643637346464652F6578616D706C6576
:1016C800732F7065726970686572616C2F626C69DE
:1016D8006E6B792F6D61696E2E6300000400000641
:0C16E80000000000008000400004000032
:0416F4000090D0038F
:04000003000003A551
:00000001FF
